{
  "_format": "hh-sol-artifact-1",
  "contractName": "TokenizedBallot",
  "sourceName": "contracts/TokenizedBallot.sol",
  "abi": [
    {
      "inputs": [
        {
          "internalType": "bytes32[]",
          "name": "_proposalNames",
          "type": "bytes32[]"
        },
        {
          "internalType": "address",
          "name": "_tokenContract",
          "type": "address"
        },
        {
          "internalType": "uint256",
          "name": "_targetBlockNumber",
          "type": "uint256"
        }
      ],
      "stateMutability": "nonpayable",
      "type": "constructor"
    },
    {
      "inputs": [
        {
          "internalType": "uint256",
          "name": "",
          "type": "uint256"
        }
      ],
      "name": "proposals",
      "outputs": [
        {
          "internalType": "bytes32",
          "name": "name",
          "type": "bytes32"
        },
        {
          "internalType": "uint256",
          "name": "voteCount",
          "type": "uint256"
        }
      ],
      "stateMutability": "view",
      "type": "function"
    },
    {
      "inputs": [],
      "name": "targetBlockNumber",
      "outputs": [
        {
          "internalType": "uint256",
          "name": "",
          "type": "uint256"
        }
      ],
      "stateMutability": "view",
      "type": "function"
    },
    {
      "inputs": [],
      "name": "tokenContract",
      "outputs": [
        {
          "internalType": "contract IMyToken",
          "name": "",
          "type": "address"
        }
      ],
      "stateMutability": "view",
      "type": "function"
    },
    {
      "inputs": [
        {
          "internalType": "uint256",
          "name": "proposal",
          "type": "uint256"
        },
        {
          "internalType": "uint256",
          "name": "amount",
          "type": "uint256"
        }
      ],
      "name": "vote",
      "outputs": [],
      "stateMutability": "nonpayable",
      "type": "function"
    },
    {
      "inputs": [
        {
          "internalType": "address",
          "name": "account",
          "type": "address"
        }
      ],
      "name": "votingPower",
      "outputs": [
        {
          "internalType": "uint256",
          "name": "",
          "type": "uint256"
        }
      ],
      "stateMutability": "view",
      "type": "function"
    },
    {
      "inputs": [],
      "name": "winnerName",
      "outputs": [
        {
          "internalType": "bytes32",
          "name": "winnerName_",
          "type": "bytes32"
        }
      ],
      "stateMutability": "view",
      "type": "function"
    },
    {
      "inputs": [],
      "name": "winningProposal",
      "outputs": [
        {
          "internalType": "uint256",
          "name": "winningProposal_",
          "type": "uint256"
        }
      ],
      "stateMutability": "view",
      "type": "function"
    }
  ],
  "bytecode": "0x60806040523480156200001157600080fd5b5060405162000db738038062000db7833981810160405281019062000037919062000383565b816000806101000a81548173ffffffffffffffffffffffffffffffffffffffff021916908373ffffffffffffffffffffffffffffffffffffffff1602179055508060028190555060005b8351811015620001155760016040518060400160405280868481518110620000ae57620000ad620003fe565b5b60200260200101518152602001600081525090806001815401808255809150506001900390600052602060002090600202016000909190919091506000820151816000015560208201518160010155505080806200010c906200045c565b91505062000081565b50505050620004a9565b6000604051905090565b600080fd5b600080fd5b600080fd5b6000601f19601f8301169050919050565b7f4e487b7100000000000000000000000000000000000000000000000000000000600052604160045260246000fd5b620001838262000138565b810181811067ffffffffffffffff82111715620001a557620001a462000149565b5b80604052505050565b6000620001ba6200011f565b9050620001c8828262000178565b919050565b600067ffffffffffffffff821115620001eb57620001ea62000149565b5b602082029050602081019050919050565b600080fd5b6000819050919050565b620002168162000201565b81146200022257600080fd5b50565b60008151905062000236816200020b565b92915050565b6000620002536200024d84620001cd565b620001ae565b90508083825260208201905060208402830185811115620002795762000278620001fc565b5b835b81811015620002a6578062000291888262000225565b8452602084019350506020810190506200027b565b5050509392505050565b600082601f830112620002c857620002c762000133565b5b8151620002da8482602086016200023c565b91505092915050565b600073ffffffffffffffffffffffffffffffffffffffff82169050919050565b60006200031082620002e3565b9050919050565b620003228162000303565b81146200032e57600080fd5b50565b600081519050620003428162000317565b92915050565b6000819050919050565b6200035d8162000348565b81146200036957600080fd5b50565b6000815190506200037d8162000352565b92915050565b6000806000606084860312156200039f576200039e62000129565b5b600084015167ffffffffffffffff811115620003c057620003bf6200012e565b5b620003ce86828701620002b0565b9350506020620003e18682870162000331565b9250506040620003f4868287016200036c565b9150509250925092565b7f4e487b7100000000000000000000000000000000000000000000000000000000600052603260045260246000fd5b7f4e487b7100000000000000000000000000000000000000000000000000000000600052601160045260246000fd5b6000620004698262000348565b91507fffffffffffffffffffffffffffffffffffffffffffffffffffffffffffffffff82036200049e576200049d6200042d565b5b600182019050919050565b6108fe80620004b96000396000f3fe608060405234801561001057600080fd5b506004361061007d5760003560e01c8063609ff1bd1161005b578063609ff1bd146100ef578063b384abef1461010d578063c07473f614610129578063e2ba53f0146101595761007d565b8063013cf08b146100825780632a8cd29e146100b357806355a373d6146100d1575b600080fd5b61009c600480360381019061009791906104a4565b610177565b6040516100aa9291906104f9565b60405180910390f35b6100bb6101ab565b6040516100c89190610522565b60405180910390f35b6100d96101b1565b6040516100e691906105bc565b60405180910390f35b6100f76101d5565b6040516101049190610522565b60405180910390f35b610127600480360381019061012291906105d7565b61025d565b005b610143600480360381019061013e9190610655565b610344565b6040516101509190610522565b60405180910390f35b610161610435565b60405161016e9190610682565b60405180910390f35b6001818154811061018757600080fd5b90600052602060002090600202016000915090508060000154908060010154905082565b60025481565b60008054906101000a900473ffffffffffffffffffffffffffffffffffffffff1681565b6000806000905060005b6001805490508110156102585781600182815481106102015761020061069d565b5b9060005260206000209060020201600101541115610245576001818154811061022d5761022c61069d565b5b90600052602060002090600202016001015491508092505b8080610250906106fb565b9150506101df565b505090565b600061026833610344565b9050818110156102ad576040517f08c379a00000000000000000000000000000000000000000000000000000000081526004016102a4906107c6565b60405180910390fd5b81600360003373ffffffffffffffffffffffffffffffffffffffff1673ffffffffffffffffffffffffffffffffffffffff16815260200190815260200160002060008282546102fc91906107e6565b9250508190555081600184815481106103185761031761069d565b5b9060005260206000209060020201600101600082825461033891906107e6565b92505081905550505050565b6000600360008373ffffffffffffffffffffffffffffffffffffffff1673ffffffffffffffffffffffffffffffffffffffff1681526020019081526020016000205460008054906101000a900473ffffffffffffffffffffffffffffffffffffffff1673ffffffffffffffffffffffffffffffffffffffff16633a46b1a8846002546040518363ffffffff1660e01b81526004016103e3929190610829565b602060405180830381865afa158015610400573d6000803e3d6000fd5b505050506040513d601f19601f820116820180604052508101906104249190610867565b61042e9190610894565b9050919050565b600060016104416101d5565b815481106104525761045161069d565b5b906000526020600020906002020160000154905090565b600080fd5b6000819050919050565b6104818161046e565b811461048c57600080fd5b50565b60008135905061049e81610478565b92915050565b6000602082840312156104ba576104b9610469565b5b60006104c88482850161048f565b91505092915050565b6000819050919050565b6104e4816104d1565b82525050565b6104f38161046e565b82525050565b600060408201905061050e60008301856104db565b61051b60208301846104ea565b9392505050565b600060208201905061053760008301846104ea565b92915050565b600073ffffffffffffffffffffffffffffffffffffffff82169050919050565b6000819050919050565b600061058261057d6105788461053d565b61055d565b61053d565b9050919050565b600061059482610567565b9050919050565b60006105a682610589565b9050919050565b6105b68161059b565b82525050565b60006020820190506105d160008301846105ad565b92915050565b600080604083850312156105ee576105ed610469565b5b60006105fc8582860161048f565b925050602061060d8582860161048f565b9150509250929050565b60006106228261053d565b9050919050565b61063281610617565b811461063d57600080fd5b50565b60008135905061064f81610629565b92915050565b60006020828403121561066b5761066a610469565b5b600061067984828501610640565b91505092915050565b600060208201905061069760008301846104db565b92915050565b7f4e487b7100000000000000000000000000000000000000000000000000000000600052603260045260246000fd5b7f4e487b7100000000000000000000000000000000000000000000000000000000600052601160045260246000fd5b60006107068261046e565b91507fffffffffffffffffffffffffffffffffffffffffffffffffffffffffffffffff8203610738576107376106cc565b5b600182019050919050565b600082825260208201905092915050565b7f547279696e6720746f20766f74652077697468206d6f7265207468616e20616c60008201527f6c6f776564000000000000000000000000000000000000000000000000000000602082015250565b60006107b0602583610743565b91506107bb82610754565b604082019050919050565b600060208201905081810360008301526107df816107a3565b9050919050565b60006107f18261046e565b91506107fc8361046e565b9250828201905080821115610814576108136106cc565b5b92915050565b61082381610617565b82525050565b600060408201905061083e600083018561081a565b61084b60208301846104ea565b9392505050565b60008151905061086181610478565b92915050565b60006020828403121561087d5761087c610469565b5b600061088b84828501610852565b91505092915050565b600061089f8261046e565b91506108aa8361046e565b92508282039050818111156108c2576108c16106cc565b5b9291505056fea2646970667358221220226b31edc45cef3475b43de56494b98de672ecca3517994268bc1273608e2d4764736f6c63430008110033",
  "linkReferences": {},
  "deployedLinkReferences": {}
}